:0A0000000C9439000C9400000C94DD
:10000A0000000C9400000C9400000C9400000C9466
:10001A0000000C9400000C9400000C9400000C9456
:10002A0000000C9400000C9400000C9400000C9446
:10003A0000000C9400000C9400000C9400000C9436
:10004A0000000C9400000C9400000C9400000C9426
:10005A0000000C9400000C9400000C9400000000B6
:10006A000200050068000000F894EE27EFBBF1E0FB
:10007A00F5BFE5BF8DE0A2E0BB27ED938A95E9F7CE
:10008A0080E098E0A0E0B1E0ED930197E9F7EAE6B5
:10009A00F0E085919591009761F0A591B591059051
:1000AA001590BF01F00105900D920197E1F7FB0150
:1000BA00F0CFE0E0EEBBEFEFEDBFE8E0EEBFC0E06F
:1000CA00D3E00C946800E0E8E0936100E0E0E0939C
:1000DA006100E6E0E4B9E8E3E5B9E0E0E7B9E3E0C6
:1000EA00E8B9EFEFEAB9E0E0EBB9E4BDE5BDE6BD9A
:1000FA00E7BDE8BDE3EAE0938000E3E0E093810036
:10010A00E0E0E0938500E0938400E0938700E093C9
:10011A008600E2E0E0938900EFEFE0938800E0E0F8
:10012A00E0938B00E0938A00E093B600E093B0007E
:10013A00E093B100E093B200E093B300E093B4001F
:10014A00E0936E00E0936F00E0937000E093690023
:10015A00EDBBE0936800E093C100E0E8E0BFE0E0B7
:10016A00E0937B00E0937F00E0937A00ECBDE0939C
:10017A00BC00309907C0E32DF42DEC59FF4F3E2EF9
:10018A004F2E06C0319908C0E4E6F0E03E1A4F0A45
:10019A00E1E0F0E05E0E6F1E5C9A5D983092880096
:1001AA00EAE0F0E0E515F60519F4A32DB42D02D026
:1001BA00E0CFFFCFBA93AA93E881F98122960895F6
:00000001FF
